:100000000C944A030C9491030C9491030C94910367
:100010000C9491030C9491030C9491030C94910310
:100020000C9491030C9491030C9454200C94901F05
:100030000C94E5170C9491030C9491030C94910388
:100040000C9491030C9491030C9491030C949103E0
:100050000C9491030C9498170C9491030C949103B5
:100060000C9491030C9491030C9491030C949103C0
:100070000C9491030C9491030C9491030C949103B0
:100080000C9491030C9491030C9491030C949103A0
:100090000C9491030C9491030C9491030C94910390
:1000A0000C9491030C9491030C949103C507C80719
:1000B000E807F507FC071C081F08610882082209E9
:1000C00022098D088F089408B908DB08DE08E108CA
:1000D00003090B0E0B0E450E450E9E0EBA0E501068
:1000E0005010C50EA30FB40FB40FA41DCB1D721F6B
:1000F000CB1D721F171E3A1E721F2F1F3F1F622635
:100100006226752675266B26752675267526622647
:10011000622670267526752670261E0F0500047F40
:100120003F1F643214643214783C1E1E140A05000A
:1001300000000000000000000000000000000000BF
:1001400000000000000000000000000000000000AF
:100150000000007E0F00D4FFFFFFC7000000780002
:10016000000000000000002A2B2800000000000012
:100170000000000000000000000029000000002C2A
:100180001E3420212224342627252E362D373827C9
:100190001E1F202122232425263333362E37381FD5
:1001A0000405060708090A0B0C0D0E0F1011121397
:1001B0001415161718191A1B1C1D2F3130232D3535
:1001C0000405060708090A0B0C0D0E0F1011121377
:1001D0001415161718191A1B1C1D2F3130354C0019
:1001E00001010101010101010102020202020202F8
:1001F00002020303030303030303040404040404CB
:100200000405050505050606060606070707070790
:1002100008080808090909090A0A0A0B0B0B0C0C43
:100220000C0D0D0D0E0E0E0F0F0F101011111112DF
:100230001213131414151516161717181819191A5E
:100240001A1B1B1C1D1D1E1E1F20202122222324C1
:1002500024252626272829292A2B2C2D2D2E2F3000
:10026000313232333435363738393A3B3C3D3E3F14
:10027000404142434445464748494A4C4D4E4F5001
:10028000515354555658595A5B5D5E5F61626465BF
:100290006668696B6C6D6F7072737577787A7B7D49
:1002A0007E8082838587888A8C8E8F91939596989D
:1002B0009A9C9EA0A2A3A5A7A9ABADAFB1B3B5B7B9
:1002C000BABCBEC0C2C4C6C9CBCDCFD1D4D6D8DB90
:1002D000DDDFE2E4E7E9EBEEF0F3F5F8FAFDFFFF2E
:1002E000AA7F554005010902A10185020901A1006B
:1002F00005091901290815002501950875018102D4
:100300000501093009311581257F9502750881069F
:1003100009381581257F950175088106050C0A3875
:10032000021581257F950175088106C0C005010968
:1003300080A101850319012AB700150126B7009590
:100340000175108100C0050C0901A1018504190186
:100350002AA002150126A002950175108100C00592
:10036000010906A1018505050719E029E715002502
:10037000019508750181020507190029EF1500256F
:100380000195F0750181020508190129059505758A
:10039000019102950175039101C00660FF0961A1F9
:1003A000010962150026FF00952075088102096386
:1003B000150026FF00952075089102C00501090669
:1003C000A101050719E029E7150025019508750128
:1003D00081029501750881010507190029FF1500A3
:1003E00026FF009506750881000508190129059565
:1003F0000575019102950175039101C009025B0029
:10040000030100A0FA090400000103010100092111
:10041000110100012240000705810308000A0904B8
:100420000100020300000009211101000122220045
:1004300007058203200001070503032000010904CA
:100440000200010300000009211101000122B60091
:100450000705840320000A1201100100000008595A
:100460004A4D410100010200011C03410068006F78
:1004700000790020004D006100630072006F007081
:100480000061006400000016034A00610079005713
:1004900000680079004F006B0061007900000004E3
:1004A0000309042223252628292A2C2D2F30323314
:1004B0003536383A3B3D3E4042434547494A4C4E2B
:1004C0005051535557595A5C5E6062646668696B57
:1004D0006D6F71737577797B7D7F81838587898A5D
:1004E0008C8E90929496989A9C9E9FA1A3A5A7A863
:1004F000AAACAEAFB1B3B4B6B8B9BBBCBEBFC1C293
:10050000C3C5C6C7C9CACBCCCDCED0D1D2D2D3D425
:10051000D5D6D7D7D8D9D9DADADBDBDBDCDCDCDC43
:10052000DCDDDDDDDDDCDCDCDCDCDBDBDBDADAD911
:10053000D9D8D7D7D6D5D4D3D2D2D1D0CECDCCCB93
:10054000CAC9C7C6C5C3C2C1BFBEBCBBB9B8B6B4B1
:10055000B3B1AFAEACAAA8A7A5A3A19F9E9C9A9841
:10056000969492908E8C8A89878583817F7D7B7912
:10057000777573716F6D6B6968666462605E5C5AF3
:100580005957555351504E4C4A4947454342403EB6
:100590003D3B3A3836353332302F2D2C2A29282648
:1005A0002523223A003B0053005400550056003CDE
:1005B000003D005F006000610057003E003F005CAE
:1005C000005D005E0057004000410059005A005B8A
:1005D00000580042004300620062006300580001BE
:1005E0000001000100010001000100010001000103
:1005F00000010001000100010001000100010001F3
:1006000000010001000100010001000100010001E2
:1006100000010001000100010001000100010001D2
:1006200000010001000100010001000100010001C2
:1006300000010001000100010001000100010001B2
:1006400000010001000100010001000100010001A2
:100650000001000100010001000100010001000192
:100660000001000100010001000100010001000182
:100670000001000100010001000100010001000172
:100680000001000100010001000100010001000162
:100690000001000011241FBECFEFDAE0DEBFCDBFA6
:1006A00004B603FE27C08091D6029091D702A09194
:1006B000D802B091D9028730904BA740B04BD1F40B
:1006C0001092D6021092D7021092D8021092D9023C
:1006D00014BE84B7877F84BF0FB6F894A895809125
:1006E0006000886180936000109260000FBEE0E0BF
:1006F000F8E3099511E0A0E0B1E0E2E4F4E502C01E
:1007000005900D92A43AB107D9F722E0A4EAB1E02E
:1007100001C01D92A63DB207E1F70E9493030C941D
:100720001F2A0C940000CF93DF93CDB7DEB7AA97B2
:100730000FB6F894DEBF0FBECDBF84B7877F84BFEE
:100740000FB6F894A895809160008861809360004E
:10075000109260000FBE90E080E80FB6F89480938E
:100760006100909361000FBE85B7806885BF85B733
:10077000806885BF88ED96E19093A5018093A401E0
:100780000E94D41F0E94F31F8091E2008460809336
:10079000E200789480917E028823A1F01091E90014
:1007A0001F709091EC00892F817090FD80E8182BCC
:1007B0001092E9008091E80083FD0E94BE1C1F702A
:1007C0001093E90082E084BD93E095BD9AEF97BD58
:1007D00080936E0080E90E94741481E90E94741471
:1007E00082E90E94741483E90E94741485E90E94CE
:1007F000741402E211E078E2E72E71E0F72EF801BE
:1008000081918F010E947414E016F106C1F7E8EAA5
:10081000F1E08DEA91E0A6EDB1E011921D928E1704
:100820009F07D9F780E090E00E9425298A3E9E4FDD
:1008300011F00E947C1882E090E00E9417298093BA
:10084000C9010E946B189093A7018093A6010E9492
:100850008B148FE39CE90197F1F700C000000E9420
:100860008B148091D60180FF17C06FEF83E290E078
:100870000E942B296FEF84E290E00E942B296FEFFA
:1008800085E290E00E942B296FEF7FEF80E090E0FF
:100890000E9449290E94741783E090E00E94172962
:1008A000682F70E080E090E00E94711A879A8F981C
:1008B000569A5E98549A5C9883E290E00E941729B9
:1008C000813281F484E290E00E941729883051F44B
:1008D00085E290E00E94172991E0803209F090E0D3
:1008E000892F01C080E080FFF6C48091AD018111A5
:1008F00036C080E090E00E9425298A3E9E4F21F07C
:100900000E947C180E94491188E090E00E941F29F3
:100910006093D1017093D2018093D3019093D4015D
:100920006E7F71F40E94491188E090E00E941F29B7
:100930006093D1017093D2018093D3019093D4013D
:100940000E94FB101092D0018091D10180FF04C061
:1009500060E086950E94CB1281E08093AD0184987F
:100960008C9A85988D9A8FB1829581707D9B02C0FB
:1009700092E001C090E0892B8093BB0184E091E07C
:100980009093AF018093AE0148E1642E712C50E446
:10099000352E6BEDC62E61E0D62E8E010F5F1F4FF8
:1009A00080917E02853009F077C0BB24B39420E1AA
:1009B000E22E32E1F32E80917E02853009F055C09F
:1009C00080917E02843009F440C080E00E94BF160E
:1009D0001092D0018091B201811116C0B092B20183
:1009E0008091D101982F91709093B1018E7F809367
:1009F000D101FFEF20E732E0F15020403040E1F735
:100A000000C000000E94DA231092B0010FB6F894E3
:100A1000A895609260000FBE3092600083B7817F1E
:100A2000846083BF83B7816083BF7894889583B7E0
:100A30008E7F83BF0FB6F894A8958091600088617F
:100A400080936000109260000FBE80917D02882329
:100A500009F4B1CF0E948B14E6EDF1E08191811190
:100A60001BC4CE16DF06D1F7A6CF0E9496260E94A1
:100A7000B7220E94BF161092B2018091B101882363
:100A800049F08091D10181608093D10160E0869529
:100A90000E94CB120E94C4230E948B1481110E94D9
:100AA000CD17AAECB1E0E6EDF1E0E12CF12C3E2D02
:100AB00021919D91922721F180E0BB24B394492F8D
:100AC0004B21D1F089A33AA32B2181E009F480E0E6
:100AD0008BA30E94D9178160782F9DA38CA349A175
:100AE0005AA16BA18DA10E94ED21F701E653FE4FA3
:100AF0008081B826B0821BC08F5FBB0C8630F9F6B0
:100B00004FEFE41AF40A85E0E816F10481F68FEF5E
:100B10008EA38FA318A60E94D9178160782F9AA759
:100B200089A74EA15FA168A58AA50E94ED218091A9
:100B3000D001882309F4AAC08091CF01E091D101AE
:100B4000E695E81BE093B501823059F4F0E0E55DED
:100B5000FE4FE491EE2EF12C99EDA92E91E2B92EE3
:100B600070C0863059F4F0E0E85DFE4FE491EE2E5F
:100B7000F12C89ECA82E81E2B82E63C0893061F493
:100B8000E695F0E0EB5DFE4FE491EE2EF12CB6E23F
:100B9000AB2EB6E2BB2E55C08F3061F4E695F0E087
:100BA000EE5DFE4FE491EE2EF12CA2ECAA2EA5E212
:100BB000BA2E47C0853159F4F0E0E15EFE4FE49172
:100BC000EE2EF12CF4E7AF2EF5E2BF2E3AC08831BD
:100BD000F9F0833249F4EDE1F1E0E590F490E9E8D1
:100BE000AE2EE1E2BE2E2DC08432D1F0853209F561
:100BF0008E2F63E00E94C229E92FF0E0E65EFE4FEF
:100C0000E491EE2EF12C70E1A72E74E2B72E19C0FC
:100C100058E2E52EF12C6BEEA62E64E2B62E11C042
:100C200034EFE32EFF24F39441EBA42E44E2B42EE0
:100C300008C090EDE92E97E0F92E28E8A22E21E2D7
:100C4000B22E8091B601882361F01092B6010E9405
:100C5000D9179093B4018093B3011092B801109208
:100C6000B7010E94D917E091B301F091B4018E1B36
:100C70009F0B8F3F9F4750F4EE0EFF1EF092B40182
:100C8000E092B30183EB91E0F50109958091BB01FE
:100C9000E82FEE0FEE0FE093BB018FB184FB4424ED
:100CA00040F8512C7D9B03C082E090E002C080E0C0
:100CB00090E0842995298E2B8093BB018F70E82FBB
:100CC000F0E0E85DFE4F90818091BA01890F80933A
:100CD000BA01843054F08091B9018F5F8093B901DB
:100CE0008AEA0E94EB2721E001C020E08091BA014E
:100CF0008D3F4CF48091B90181508093B90189EA0C
:100D00000E94EB2721E08091BA01082E000C990B7C
:100D100064E070E00E94E2298093BA0121110E94F0
:100D2000CD1786E0E2ECF1E0D80101900D928A95B2
:100D3000E1F7A090C401B090C501E090C601F09029
:100D4000C7011092C4011092C5011092C601109201
:100D5000C701A11003C0BB2009F451C08091C0019C
:100D60009091C1010E94BE179C019091BF019923EF
:100D700009F4CAC22333310508F441C09F3F19F07A
:100D80009F5F9093BF01AA2061F00E94F9131A148B
:100D900014F491E001C09FEF899F802D112480936E
:100DA000C401BB2061F00E94F9131B1414F491E0FC
:100DB00001C09FEF899F802D11248093C501309140
:100DC000C4013323E1F02091C5012223C1F045EB9A
:100DD0003403C0011124992319F09093C40103C076
:100DE00081E08093C40135EB2303C00111249923D2
:100DF00019F09093C50103C081E08093C501E11013
:100E000003C0FF2009F451C08091BD019091BE0143
:100E10000E94BE179C019091BC01992309F479C2EC
:100E20002536310508F441C09F3F19F09F5F90932C
:100E3000BC01EE2061F00E94D7131E1414F491E05F
:100E400001C09FEF899F802D11248093C601FF2050
:100E500061F00E94D7131F1414F491E001C09FEFBA
:100E6000899F802D11248093C7013091C6013323BF
:100E7000E1F02091C7012223C1F045EB3403C0010A
:100E80001124992319F09093C60103C081E0809347
:100E9000C60135EB2303C0011124992319F0909367
:100EA000C70103C081E08093C7018091C401811113
:100EB0000BC08091C501811107C08091C6018111CD
:100EC00003C08091C70181110E943613AB82BC829E
:100ED000ED82FE8286E0F801A2ECB1E001900D9275
:100EE0008A95E1F70E94B7229091C801891731F0E5
:100EF0000E94B7228093C8010E94BF1680917E0293
:100F0000843009F04DCD83E08093E9008091E800C2
:100F100082FF46CD8091E80085FF21C00E942921F3
:100F200081111BC080E2E82EF12C580109C080918C
:100F3000F100F50181935F01F1E0EF1AF10869F02A
:100F40008091E80085FDF3CF8091E8008B77809356
:100F5000E8000E942921882399F391E001C090E0E4
:100F60008091E8008B778093E800992309F418CDED
:100F7000E9818E2F90E0FC013197E331F10508F013
:100F800061C1EA5AFF4F0C94F6291A8289E0CAC05F
:100F90008A81823009F496C1833051F0813009F0A2
:100FA00051C10E94CD179B838C837D836E834CC17E
:100FB0008091D6018B838091D7018C838091D80159
:100FC0008D838091D9018E838091DA018F833CC11A
:100FD0008A81823009F036C16B817C818D819E814E
:100FE0000E94FC2986E290E024C04C816B818A81BA
:100FF0000E947A239D836DC1AD80BE80BA24AB244C
:10100000BA248C81EB809A812CE0E29E700111243D
:101010003CE3939FE00CF11C1124E80EF11CE80E58
:10102000F11C6B2DC70187960E942B296A2DC701E1
:1010300088960E942B2908C10E94462305C18A81F7
:101040008138B1F050F4803809F0FEC020E04B81C7
:101050006091D3018091D20131C0823859F1833837
:1010600009F0F2C020E04091D4016C818B8126C050
:1010700060E08B810E94CB129B818091D101911104
:1010800011C08E7F8093D1011092D0014FEF80E785
:1010900092E0415080409040E1F700C000000E9483
:1010A000DA23D2C081608093D10160E086950E94EE
:1010B000CB12CAC08B818093D501C6C00E94F211A9
:1010C000C3C08A81813899F030F4803809F0BCC0FF
:1010D0008091D40127C0823891F0833809F0B4C0E0
:1010E0008091D2018B838091D3018C83ADC080919C
:1010F000D10180FF02C0869515C080E013C08091A9
:10110000D50110C06091D1017091D2018091D301BD
:101110009091D4010E94151197C080E150C082E0E7
:101120008A8389EE8B8390C0EA80FB80FE24EF24C3
:10113000FE248C80912C5801C701895E9E4F950139
:10114000201B310B2815390508F07EC0E9EEEE169C
:10115000E2E0FE0628F40E941729F501848302C00C
:10116000F5011482FFEFEF1AFF0A2FEFA21AB20A5D
:10117000E3CFEA80FB80FE24EF24FE248C80912CB8
:101180005801C701895E9E4F9501201B310B281520
:10119000390508F059C039EEE31632E0F30620F4C1
:1011A000F50164810E942B29FFEFEF1AFF0A2FEF50
:1011B000A21AB20AE6CF0E94362346C084E08A8390
:1011C00043C0EA80FB80FE24EF24FE248C80912C17
:1011D0005801C70187969501201B310B2815390549
:1011E00098F530EFE316F10428F40E941729F50171
:1011F000848302C0F5011482FFEFEF1AFF0A2FEF7C
:10120000A21AB20AE6CFEA80FB80FE24EF24FE2475
:101210008C80912C5801C70187969501201B310BBA
:101220002815390588F430EFE316F10420F4F501B0
:1012300064810E942B29FFEFEF1AFF0A2FEFA21AF9
:10124000B20AE9CF8FEF898380917E02843009F062
:10125000A7CB8091E9008F702091EC00922F9170C4
:1012600020FD90E8F92EF82A82E08093E900809131
:10127000E80080FF0CC040E050E060E270E0C80190
:101280000E945C218091E8008E778093E8008F2D8A
:101290008F708093E90084CBE9BCF9BC09B400FEEF
:1012A000FDCF8091D8008F7D8093D8008091E000A1
:1012B00082608093E0008091E00081FDFCCF0E947D
:1012C000962679CB86E290E00E9417291B821C8229
:1012D0001D828E83B9CF60E086E290E00E942B29C8
:1012E0000E9446230E94362361E283E290E00E943E
:1012F0002B2968E084E290E00E942B2960E285E2DD
:1013000090E00E942B29F1CA2D32314008F038CDEF
:1013100076CD2D32314008F089CDC7CD3F924F9226
:101320005F926F927F928F929F92AF92BF92CF9275
:10133000DF92EF92FF920F931F93CF93DF93CDB77E
:10134000DEB729970FB6F894DEBF0FBECDBFFC0104
:101350008081918123813481232B31F09F3F31F4AF
:1013600091E08F3F19F403C091E001C090E090FD3F
:10137000D6C67F0185E0DE01119601900D928A9517
:10138000E1F7F701228189819A81222349F00E94A5
:101390005E19182F682F89819A810E94D81903C07D
:1013A0000E94AB19182F69817A81812F0E94A02396
:1013B0008C01F7018281882309F4F2C0980122513F
:1013C0003F452031310508F019C18FEF93E00E94AD
:1013D00017298111EFC0025137E1832E992493948C
:1013E000002379F08114F4E09F0609F4E3C0C401FE
:1013F0000E941729811101C001501FEF811A910A23
:10140000EFCF1E821F8218861986442443942AE057
:10141000322E84010F5F1F4FC4010E9417298E8353
:101420001F82882309F4C6C09FEF980F933060F4A1
:101430008F834E8222E0820E911CC8010E941729E0
:101440008887811102C0B6C048018E010A5F1F4F14
:10145000F80120812223E9F2213009F04CC081817A
:10146000813049F46801F2E0CF0ED11CF80182818D
:101470000E94EB270AC0823051F46801F2E0CF0EDF
:10148000D11CF80182810E942727860186C0833003
:1014900049F46801F2E0CF0ED11CF80182810E946C
:1014A000C026F3CF843019F00F5F1F4F76C0F801CC
:1014B00022810E5F1F4F80E090E030E02053310921
:1014C0002A30310568F4389EA001399E500D112450
:1014D000C901840F951F0F5F1F4FF8012081EDCFC9
:1014E000009709F45AC0EFE9FFE03197F1F700C027
:1014F00000000197F5CFE22FF0E0E15AFE4F549043
:10150000822F86958695869590E0FC01E15BFE4FE3
:1015100064902770712C022E02C0759467940A940F
:10152000E2F7F1E06F227724FC01E15CFE4FA4902A
:10153000B12C022E02C0B594A7940A94E2F731E0D0
:10154000A322BB24FC01E15DFE4FC490D12C02C05C
:10155000D594C7942A95E2F781E0C822DD2461146E
:10156000710419F081EE0E942727A114B10419F02B
:1015700086EE0E942727852D0E94EB27AB2819F0C5
:1015800086EE0E94C026672819F081EE0E94C026D0
:10159000CD2819F08CE20E94EB270F5F1F4F58CF28
:1015A00000313FE5130709F0B1C581E00E940E1A32
:1015B0000E94A01C80914C02877009F4B0C5F7010D
:1015C0008281882309F4ABC582E029960FB6F8948E
:1015D000DEBF0FBECDBFDF91CF911F910F91FF9066
:1015E000EF90DF90CF90BF90AF909F908F907F90C3
:1015F0006F905F904F903F900C94331A0031FFE54D
:101600001F0711F481E005C001312FE5120721F415
:1016100082E00E94501ACCCF033FFCE51F0749F43B
:1016200006E221EE40EE63EF7CE5C7010E94C32293
:10163000C1CF043F2CE5120708F049C1083D3CE545
:10164000130731F407E225EE45EE68ED7CE5EDCFBA
:10165000093D9CE5190731F408E221E045EE69ED0A
:101660007CE5E3CF073DECE51E0731F406E221EE11
:1016700041EE67ED7CE5D9CF882309F45DC1109276
:10168000DB0102309CE5190708F440C10631ECE5A6
:101690001E0730F0C8018A5F9C45099708F036C1E3
:1016A0000E946B189093A7018093A6010031FCE57E
:1016B0001F0709F4C3C008F041C008303CE5130718
:1016C00009F49AC0F0F404309CE5190709F487C0C6
:1016D00068F40230FCE51F0709F477C003301C45AD
:1016E00009F0E5C08091A601826076C006303CE535
:1016F000130709F46EC008F07BC08091A6018860D2
:101700006BC00C309CE5190709F485C068F40A30F9
:10171000FCE51F0709F474C008F079C00E94962602
:101720008091A601806858C00E303CE5130709F48B
:1017300076C008F07FC08091A6018BC00B3F9CE56E
:10174000190709F44FC018F50331FCE51F0709F428
:101750007DC078F401313CE5130709F473C0023110
:101760001C4509F0A4C00E9496268091A6018F779F
:1017700033C005319CE5190709F472C008F486C02E
:101780000A3F1C4509F093C08091A7013EC00F3F5E
:101790002CE5120709F45FC058F40D3F8CE51807DB
:1017A00009F444C008F43FC08091A70182602DC0B5
:1017B0000130EDE51E0709F475C008F45DC0023084
:1017C0001D4509F074C060E06EC08091A601816083
:1017D00003C08091A60180618093A60168C08091BA
:1017E000A60111C08091A70182608093A7015FC00C
:1017F0008091A6018062F0CF8091A6018064ECCF39
:101800008091A60188608460E7CF8160EECF8091EF
:10181000A6018E7FE1CF8091A6018D7FDDCF8091E3
:10182000A601877FD9CF8091A70118C08091A70119
:101830008D7FDBCF8091A6018F7ECECF8091A601D8
:101840008F7DCACF8091A6018F7BC6CF8091A601E4
:10185000877F8B7FC1CF8091A7018D7F8E7FC5CF82
:101860008091A60182FB222720F991E0922790FB2C
:1018700082F990FB83F9B0CF8091A701982F9095C2
:1018800091708E7F892B90FB81F9AFCF0E949626B5
:101890008091A60187FB222720F991E0922790FBF7
:1018A00087F99ACF61E08EE090E00E942B29609149
:1018B000A6011091A70184E090E00E942B29612FDE
:1018C00082E290E00E942B290E94962673CE053F6B
:1018D000FCE51F0731F406E221EE42EE65EF7CE500
:1018E000A4CE053F2CE5120730F407E225EE44EEC6
:1018F00064EF7CE59ACE063F3CE5130709F0BCCEC9
:1019000007E225EE46EE66EF7CE58FCE80914F0232
:1019100006319CE5190709F58A7A91E009F490E00F
:101920009093DC01882311F065E301C069E280EE49
:1019300091E00E9436180EC006311C4509F025C101
:101940008091DC01882309F4E8C365E380EE91E02F
:101950000E940E180E94FE182DCE82720C3C3CE5AF
:10196000130709F4C2C008F045C0063CECE51E07A9
:1019700009F4A7C0D8F4033C2CE5120709F497C07A
:1019800030F4023C8CE5180709F46DC0CDC0043C6E
:101990009CE5190709F490C0053CECE51E0709F029
:1019A000C3C049EB52E162EC72E1A3C0093CFCE523
:1019B0001F0709F490C078F4073C3CE5130709F4CD
:1019C00085C0083C9CE5190709F0AEC04DEA52E11C
:1019D00061EA72E18EC00A3CECE51E0709F480C0A2
:1019E0000B3CFCE51F0709F09FC047E251E168E3AB
:1019F00071E17FC0013D2CE5120709F485C0A0F418
:101A00000E3C8CE5180709F479C008F475C00F3C4A
:101A1000ECE51E0709F475C0003DFCE51F0709F061
:101A200083C06EE089E07DC0043D2CE5120709F417
:101A300071C060F4023D8CE5180709F468C0033DED
:101A40009CE5190709F070C088E168C0053DECE528
:101A50001E0709F462C00D35FDE51F0709F064C0DB
:101A60006AE285E25EC08091D10180FF1BC08E7F5B
:101A70008093D1016091D1017091D2018091D30105
:101A80009091D4010E9415111092D0010FEF10E730
:101A900022E0015010402040E1F700C000000E9409
:101AA000DA2388CD81608093D101869537C049E0E3
:101AB00053E162E173E11DC042E153E169E073E18A
:101AC00018C042EC52E169EB72E113C041EA52E105
:101AD0006DEA72E10EC049E852E165E972E109C0C0
:101AE00045E952E169E872E104C048E351E167E287
:101AF00071E10E94BE235ECD81E010C065E082E00E
:101B000010C068E086E00DC064E18FE00AC067E1C4
:101B100085E107C062E289E104C083E20E94061306
:101B200049CD0E94AD2346CD0A353DE5130741F16D
:101B300050F401159CE51907A9F00E3D1C4529F547
:101B40000E947C1837CD0B35FDE51F07D9F00C3509
:101B50001D45D9F48091A70182FB882780F991E087
:101B6000892711C00E9496263FEF84E39CE0315004
:101B700080409040E1F700C000000E9474171ACD29
:101B800081E001C080E00E944419F7018281008158
:101B90001181882349F0C8010E945E19D82E682F50
:101BA000C8010E94D81904C0C8010E94AB19D82EE0
:101BB000B8018D2D0E9430158C01982EF701D2802E
:101BC000A580A2949FE0A92280914C02877099F091
:101BD000DD2089F0812F807F803421F080E2800F2A
:101BE000883048F082E00E94331A80914C0287705E
:101BF000CC24C3948111C12CB12EB2948FE0B822B1
:101C00008B2D90E08C30910508F04AC2FC01E75919
:101C1000FF4F0C94F629812F807F1F70882311F0CD
:101C20001295107FDD20B9F0112309F424C280E25F
:101C3000800F883010F0911006C080914F02182B51
:101C400010934F0205C080914E02182B10934E0244
:101C50000E94FE1810C2802F0E94C026112309F492
:101C60001FC2005E1095083010F0911006C08091E0
:101C70004F02182310934F0205C080914E02182383
:101C800010934E020E94FE180BC2812F807F1F709E
:101C9000803211F01295107F992021F0F1E09F160B
:101CA00011F130C0DD20B1F0AA2081F001E0A012D6
:101CB0000DC08091A70182FDF3C180915002182BC5
:101CC000181709F4EDC110935002EAC18091500237
:101CD000812B10C0AA2021F021E0A21609F4E0C156
:101CE0000E94F81827C0DD2041F035E03A1508F4CD
:101CF000D7C1812F0E94B626D3C184E08A1508F48B
:101D0000CFC118C0DD2049F0AA2099F3F7018581E1
:101D100080FFB1C18F708583ECCFAA2059F00933C1
:101D200009F0BBC1FFEF17EE23E0F1501040204057
:101D3000E1F7B1C1812F0E94AB26B2C1812F8695F8
:101D40008695837019F0813059F0AAC1DD2019F011
:101D5000C801937002C080E090E00E94A122A8C157
:101D6000DD2019F0C801937002C080E090E00E946D
:101D70008B229EC1802FDD2019F00E94191402C011
:101D80000E9460130E94361393C1812F837009F063
:101D900069C0D11089C1902F929596959770990F2F
:101DA000990F802F8F70882E912CA12CB12C092E89
:101DB00004C0880C991CAA1CBB1C0A94D2F704FF0F
:101DC00012C04FE050E060E070E004C0440F551FC7
:101DD000661F771F9A95D2F7DB01CA01809590950F
:101DE000A095B09503C080E090E0DC0116951695B3
:101DF000412F4370423019F1C8F400915102109103
:101E000052022091530230915402413059F08829F6
:101E10009929AA29BB29BC01CD0160237123822302
:101E200093230AC0802A912AA22AB32ABC01CD0199
:101E3000682979298A299B290E94711A35C1882924
:101E40009929AA29BB29009151021091520220918F
:101E5000530230915402BC01CD01602771278227C3
:101E60009327EACFDD2019F0812F817001C086957C
:101E7000882309F419C1902F929596959770990F20
:101E8000990F802F8F70882E912CA12CB12C092EA8
:101E900004C0880C991CAA1CBB1C0A94D2F704FF2E
:101EA00012C04FE050E060E070E004C0440F551FE6
:101EB000661F771F9A95D2F7DB01CA01809590952E
:101EC000A095B09503C080E090E0DC0116951695D2
:101ED000412F43704230D9F068F50091880210918B
:101EE000890220918A0230918B02413059F0882971
:101EF0009929AA29BB29BC01CD0160237123822322
:101F000093231EC0802A912AA22AB32A13C08829AB
:101F10009929AA29BB290091880210918902209150
:101F20008A0230918B02BC01CD0160277127822784
:101F3000932706C0BC01CD01682979298A299B29EC
:101F40000E94041AB1C01F70DD2039F0812F0E9459
:101F5000501A802F0E94B626A7C0802F0E94AB2661
:101F6000812F0E940E1AA0C0802F32EF931609F421
:101F700040C0391538F090EF991661F0E1EF9E16E8
:101F800099F174C0F3EF9F16D9F124EF921609F47A
:101F90004EC06CC0DD2019F134E03A1508F480C061
:101FA0001F7181E090E0A0E0B0E0AC01BD0104C091
:101FB000440F551F661F771F1A95D2F7809188022C
:101FC00090918902A0918A02B0918B028A019B01B3
:101FD000082719272A273B27C901B80125C025E072
:101FE0002A1508F45DC0DCCFDD2029F0812F8F7128
:101FF00030C0DD20D9F3812F8F710E940E1A50C09E
:10200000DD2079F01F7181E090E0A0E0B0E0BC013C
:10201000CD0104C0660F771F881F991F1A95D2F74C
:1020200003C060E070E0CB010E94041A39C0DD20DB
:1020300099F01F71812F0E94501A8091A70182FD93
:1020400007C038E0139FC0011124836080934C02C5
:10205000812F0E94501A24C081E00E94331A81E02F
:102060008A15F0F482E00E94331A1AC0DD2039F09C
:10207000AA2009F4BBCF802F0E94272711C0AA20D5
:1020800009F4B9CF893349F49FEFE7EEF3E09150BB
:10209000E040F040E1F700C00000802F0E94C02621
:1020A00088EF8B0D843020F40E94B7220E94BF1667
:1020B000CC20A9F180914C0280FD31C0F701128241
:1020C0008595859585950E94501AC7010E948E09B5
:1020D00080914C0285958595859529960FB6F89443
:1020E000DEBF0FBECDBFDF91CF911F910F91FF904B
:1020F000EF90DF90CF90BF90AF909F908F907F90A8
:102100006F905F904F903F900C940E1A01319FE5B5
:10211000190709F081CA82E049CA69E217CC2996F9
:102120000FB6F894DEBF0FBECDBFDF91CF911F91E8
:102130000F91FF90EF90DF90CF90BF90AF909F9066
:102140008F907F906F905F904F903F900895909107
:10215000A60192FF0DC0282F2871283019F4877F1F
:10216000846006C0282F2471243011F48B7F88608E
:1021700093FF0DC0282F2871283119F4877E8461C0
:1021800006C0282F2471243111F48B7E88612091A0
:10219000A70120FF0DC0382F3871383019F4877F20
:1021A000816006C0382F3171313011F48E7F886024
:1021B00021FF0DC0282F2871283119F4877E8161F5
:1021C00006C0282F2171213111F48E7E886194FD83
:1021D000877E08959091D10190FF0CC0EFE8F2E066
:1021E000818360834283339692E0E73AF907C1F72F
:1021F0000C94DA2308958091D101282F269530E0A0
:102200002115310519F48170826005C02B3231052A
:1022100024F0817084658093D1018091D4018B3F3B
:1022200018F08AEF8093D4010895CF92DF92EF9255
:10223000FF926B017C010E94FB10B701A60188E0B0
:1022400090E0FF90EF90DF90CF900C943D2980912B
:10225000D501882319F081508093D5016091D10177
:102260007091D2018091D3019091D4010C941511F9
:102270008091D501833018F48F5F8093D5016091F0
:10228000D1017091D2018091D3019091D4010C942D
:102290001511E1EDF1E083E0808311828FEF8283FD
:1022A0008AEF8383148260817181828193810C948F
:1022B0001511AF92BF92CF92DF92EF92FF920F93E0
:1022C0001F93CF93DF93E82EF62EE9014B3F08F0E2
:1022D0004AEFE42FF0E0F11006C0E152FE4FE49126
:1022E0004E2F2E2F71C00F2D10E0E152FE4F449162
:1022F000F42FC42ED12C26E0E29EC00111242FEF32
:1023000030E0B9010E94CE295BEA5603C001579F15
:10231000900D11248E0D911D8E0D911D582F550F6E
:10232000580FD901A01BB10BAC9DC001AD9D900D04
:10233000BC9D900D1124E92FF59ED0011124AB2FE7
:10234000BB277901EA1AFB0AEC9CD001ED9CB00D89
:10235000FC9CB00D11245901A51AB108A09E700172
:10236000A19EF00CB09EF00C1124EF2CFF242E192E
:102370003F092C9D80012D9D100D3C9D100D1124B9
:10238000212F6230710591F048F461157105E1F07B
:1023900061307105B9F4242F4B2F16C064307105DC
:1023A00069F040F06630710579F00CC0242F492F98
:1023B000E12F0AC0492FEF2F2B2F06C0292FE42F22
:1023C000412F02C0292FEB2F49832883EA83DF9115
:1023D000CF911F910F91FF90EF90DF90CF90BF9022
:1023E000AF9008957F928F929F92AF92BF92CF92BB
:1023F000DF92EF92FF920F931F93CF93DF9300D062
:102400001F92CDB7DEB7182FD62E042FC22E909173
:10241000D10190FF6DC0E92FE695AE2FB0E0A85C2A
:10242000BE4F8C918093CF019E7F923061F49E01CC
:102430002F5F3F4F812F0E9459114B8169818A8103
:102440000E94EA1043C0823019F40091D4013EC0CA
:10245000863019F41091D20139C08930D9F389310D
:10246000A9F5E9512E2F2170722EE695F0E0E15288
:10247000FD4F859094903FE8A32E32E0B32EE12CDF
:10248000F12C99248E9CC0018F9C900D9E9C900DE8
:10249000112423E0969587952A95E1F7711002C0E3
:1024A000810F03C0212F281B822F9501402F6D2DF6
:1024B0000E9459118FEFE81AF80A23E0A20EB11C0E
:1024C00088E0E816F104F1F60E94DA231093D201B5
:1024D000D092D3010093D401CC2051F06091D1016E
:1024E0007091D2018091D3019091D4010E94151175
:1024F0000F900F900F90DF91CF911F910F91FF9050
:10250000EF90DF90CF90BF90AF909F908F907F9093
:102510000895E1EDF1E0438128E0421B08F440E03A
:1025200021E0628181810C94F211E1EDF1E04381BF
:1025300028E0420F08F44FEF21E0628181810C9482
:10254000F211E1EDF1E0628128E0621B08F460E045
:1025500021E0438181810C94F211E1EDF1E062818F
:1025600028E0620F08F46FEF21E0438181810C9431
:10257000F211E1EDF1E0818121E043816281885037
:102580000C94F211E1EDF1E0818121E0438162815F
:10259000885F0C94F2119091D10190FF36C0917038
:1025A000811102C0926006C08B3210F0946502C0A7
:1025B000880F982B9093D101662351F06091D1013F
:1025C0007091D2018091D3019091D4010E94151194
:1025D0006091D101669570E04BE050E08FE091E0B2
:1025E0000E94122A892B19F01092D00102C00E9479
:1025F000C42381E08093B60120E04091D401609132
:10260000D3018091D2010C94F211089561E00C94F1
:10261000CB128091D1018695815009F48AE261E064
:102620000C94CB128091D10186958F5F8B3208F08C
:1026300081E061E00C94CB12CF93DF9300D01F9226
:10264000CDB7DEB79091D10190FF0AC09E012F5FF8
:102650003F4F0E9459114B8169818A810E94EA1083
:102660000F900F900F90DF91CF9108950E94D9178E
:102670002091C401211104C02091C501222321F021
:102680009093C1018093C0012091C601211104C023
:102690002091C701222321F09093BE018093BD01B8
:1026A000E091AE01F091AF01309749F082E0809364
:1026B000C2010480F581E02D82EC91E00994089537
:1026C000803F39F49091C50197FF35C01092C50144
:1026D00059C0813F29F49091C5011916BCF32BC054
:1026E0009091C401823F29F497FF25C01092C40144
:1026F00049C0833F19F41916CCF31DC09091C6014F
:10270000893F29F41916BCF41092C6013BC08A3FD8
:1027100019F497FF10C0F8CF8B3F39F49091C7019F
:1027200097FF09C01092C7012DC08C3F21F49091F2
:10273000C7011916BCF39CE0980F953080F421E096
:1027400030E0A90102C0440F551F9A95E2F7CA0173
:1027500080959091C30189238093C30113C08D3F5D
:1027600021F48091D5028E7F0BC08E3F21F48091A1
:10277000D5028D7F05C08F3F29F48091D5028B7FD4
:102780008093D5028091C401811106C08091C5015A
:10279000811102C01092BF018091C601811106C053
:1027A0008091C701811102C01092BC0108958091EF
:1027B000D50280FD16C081FD16C082FD18C0809133
:1027C000BC01882391F0883290F428E0829FC001F8
:1027D000112468E270E00E94E229862F672B29F01D
:1027E00007C082E0089584E0089581E0089588E0BC
:1027F00008958091D50280FD14C081FD14C082FD32
:1028000016C08091BF01882381F0843180F422E3D7
:10281000829FC001112464E170E00E94E229862FAA
:1028200008958CE0089589E1089585E0089582E394
:102830000895803F21F40E94F913819504C0813FDF
:1028400029F40E94F9138093C5010895823F21F471
:102850000E94F913819504C0833F29F40E94F91363
:102860008093C4010895893F19F40E94D71305C0CD
:102870008A3F31F40E94D71381958093C601089551
:102880008B3F21F40E94D713819504C08C3F29F41B
:102890000E94D7138093C70108959CE0980F95304C
:1028A00078F421E030E0A90102C0440F551F9A9549
:1028B000E2F7CA019091C301892B8093C301089567
:1028C0008D3F21F48091D50281600BC08E3F21F4B1
:1028D0008091D502826005C08F3F29F48091D50296
:1028E00084608093D5020895F894E82FE295EF7004
:1028F000F0E031A1282F2F7081E090E001C0880F17
:102900002A95EAF7982F9095932391A392A1892B6A
:1029100082A378940895AF92BF92CF92DF92EF9204
:10292000FF920F931F93CF93DF93CDE1D1E088EA1D
:10293000C82E81E0D82E92E2E92E91E0F92EB12C3A
:1029400001E010E0BE018881F894E82FE295EF7075
:10295000F0E021A18F70A80102C0440F551F8A9595
:10296000E2F7CA01922F982B91A392A18095892317
:1029700082A3789400C0E2E2F1E020E030E0A12CF4
:102980004191842F82958F7090E0DC0190968C911C
:1029900090E04F7002C0959587954A95E2F780FDCB
:1029A00007C0802F022E01C0880F0A94EAF701C0E9
:1029B00080E0A82A2F5F3F4F2630310509F7219686
:1029C000FB0180810E947414F0EAFA95F1F7D601B8
:1029D0008C91A81619F0AC9281E001C080E0B82A71
:1029E000BFEFCB1ADB0AEC16FD0609F0ABCFBB201C
:1029F00049F081E08093DF010E94D9179093DE01B6
:102A00008093DD018091DF018823F1F08091DD0169
:102A10009091DE010E94BE170697B0F08091A80148
:102A20008093D6018091A9018093D7018091AA015A
:102A30008093D8018091AB018093D9018091AC0142
:102A40008093DA011092DF018B2DDF91CF911F91DE
:102A50000F91FF90EF90DF90CF90BF90AF900895CF
:102A6000CF93DF930E94A023EC018238910559F1A6
:102A7000A0F48133910509F473C040F489329105C3
:102A800009F467C08A9709F472C084C08533910540
:102A900009F458C0C997B9F07DC0833E910571F122
:102AA00038F4803E9105B1F0823E910511F172C07B
:102AB000863E9105B9F1873E9105C9F1843E9105A5
:102AC00009F068C024C08091A60180FD5DC081FD31
:102AD0005BC060C08091A60180FD50C08091A701BD
:102AE00080FF49C18091A60184FD43C1C3EED0E0BF
:102AF00042C18091A60182FF3EC1F4CF8091A60120
:102B000082FD3FC08091A70180FD3EC0EBCF809148
:102B1000A70181FF30C18091A60184FD2AC1C7EEC3
:102B2000D0E029C18091A60183FF25C1F4CF809117
:102B3000A60183FD2CC08091A70181FFECCFC4EEDC
:102B4000D0E019C18091A60185FF15C1C9E2D0E08E
:102B500012C18091A60185FF0EC1C5E3D0E00BC173
:102B60008091A60186FF07C1CAE2D0E004C180912E
:102B7000A60186FF00C1C1E3D0E0FDC0C9E3D0E0FB
:102B8000FAC0C2EED0E0F7C0C0EED0E0F4C0C6EEAE
:102B9000D0E0F1C0C11581E5D80708F066C0C115C5
:102BA00020E5D207E0F0CE0174E0969587957A95FE
:102BB000E1F783709C2F937021E030E002C0220F78
:102BC000331F9A95E2F73C68382BCF70C695C695AF
:102BD00040E2C49FE0011124C22BD32BCCC0C83EDD
:102BE000D10560F5C03ED10508F0C5C0C83AD10591
:102BF000B0F4C53AD10540F0C55AD0E0CE58DE4F0A
:102C0000C881D0E0D064B7C0C130D10509F4B3C0E9
:102C100008F4AFC0C430D10508F4ABC0ACC0CF3BA2
:102C2000D10508F0A6C0C85AD0E0CC0FDD1FCB58A4
:102C3000DE4F0990D881C02DD4649DC0C11540E2FB
:102C4000D40758F4C11581E0D80708F094C0C03FFC
:102C5000D10508F48EC0D0658EC0C11520E4D2071E
:102C600008F487C0DF70D06A86C0C11545E5D40777
:102C700008F042C0C11584E5D80728F0DC2FCC2726
:102C8000C46FD06A78C0C11523E5D207B0F0CE0179
:102C90008370992721E030E002C0220F331F8A950C
:102CA000E2F78C2F8695869540E2849FC00111241F
:102CB000E901C82BD92BDA685EC0C11542E5D407FB
:102CC00028F4DC2FCC27C16FD06A55C0CE018370A9
:102CD000992721E030E002C0220F331F8A95E2F7E6
:102CE0008C2F8695869540E2849FC0011124E901CE
:102CF000C82BD92BDC683FC0C11589E5D807B8F4CB
:102D0000C11528E5D20728F0DC2FCC27C06FD06A88
:102D100032C0C11546E5D40760F58C2F0E94A7107C
:102D20008F71C82FD0E0DC2FCC27D06224C0C11512
:102D30008AE5D80780F48C2F8F700E94A71094E04A
:102D4000D695C7959A95E1F7CF70D0E0DC2FCC27C8
:102D5000D069C82B10C0CE0190568115904248F41E
:102D60008D2F8F710E94A710DD27D0628F71D82B15
:102D700002C0C0E0D0E0CE01DF91CF91089581FB89
:102D8000222720F982FB992790F980FF02C08F9AB1
:102D900001C08F98222311F05E9A01C05E9899239A
:102DA00011F05C9A08955C98089580915B020895F3
:102DB00080E00895CF93DF9300D01F92CDB7DEB7A8
:102DC00090917E02943011F589837B836A8390937E
:102DD000E9008FEF9091E800815095FD06C095EDD8
:102DE0009A95F1F700008111F5CF8091E80085FFF9
:102DF0000DC040E050E063E070E0CE0101960E941B
:102E00005C218091E8008E778093E8000F900F900E
:102E10000F90DF91CF910895BC0184E00C94DA16F5
:102E2000BC0183E00C94DA1624E02093E9002FEF34
:102E30003091E800215035FD06C035ED3A95F1F7A7
:102E400000002111F5CF2091E80025FF0BC040E0E4
:102E500050E066E070E00E945C218091E8008E778F
:102E60008093E8000895CF93DF9320910E012223F1
:102E700039F02091A60127FF03C060E224E002C0E0
:102E800068E021E02093E9002FEF3091E800215025
:102E900035FD06C035ED3A95F1F700002111F5CF6B
:102EA0002091E80025FF1DC0EC0180910E018111E9
:102EB00005C040E050E068E070E003C070E040E032
:102EC00050E0CE010E945C218091E8008E778093D3
:102ED000E80080E2FE01ACE5B2E001900D928A9537
:102EE000E1F7DF91CF91089581E08093E00080E2E7
:102EF0008093D8001092C9008FE19EE40197F1F70A
:102F000000C0000087E090EBDC018093D602909334
:102F1000D702A093D802B093D9029CE088E10FB603
:102F2000F894A895809360000FBE90936000FFCF47
:102F300078941F920F920FB60F9211248F939F9344
:102F4000AF93BF938091550290915602A091570282
:102F5000B09158020196A11DB11D80935502909326
:102F60005602A0935702B0935802BF91AF919F9120
:102F70008F910F900FBE0F901F9018959C014FB727
:102F8000F8948091550290915602A0915702B09109
:102F900058024FBF821B930B08952FB7F89460918E
:102FA00055027091560280915702909158022FBF9E
:102FB00008952FB7F8948091550290915602A091F0
:102FC0005702B09158022FBF08951F920F920FB66B
:102FD0000F9211248F939F93AF93BF938091B00171
:102FE000811113C08091550290915602A091570211
:102FF000B09158024196A11DB11D80935502909346
:103000005602A0935702B0935802BF91AF919F917F
:103010008F910F900FBE0F901F90189520910E0169
:103020002223C9F02091A60127FF15C0262F26953F
:10303000269526952E31C8F4FC01E20FF11D67702C
:1030400081E090E001C0880F6A95EAF7809592814F
:10305000892382830895FC0106962281621301C0B0
:1030600012823196E817F907C1F7089520910E01F1
:103070002223C1F02091A60127FF14C0262F2695F8
:10308000269526952E3130F5FC01E20FF11D677073
:1030900081E090E001C0880F6A95EAF79281892B60
:1030A00082830895FC0132962FEF30E0419164173E
:1030B00089F02F3F19F4411101C0232F3F5F3630B3
:1030C000A9F72F3F39F0FC01E20FF11D27FDFA951A
:1030D000628308950895CF9384E090E00E941729B9
:1030E000C82F82E290E00E9417292C2F30E0A9011E
:1030F000582BCA01CF9108956AEE7EEF80E090E0F0
:103100000E94492960E082E090E00E942B2960E063
:1031100083E090E00E942B291092510210925202FB
:10312000109253021092540260E084E090E00E94FA
:103130002B2960E082E290E00E942B2960E085E08C
:1031400090E00E942B2960E086E090E00E942B290D
:103150006FEF87E090E00E942B2940E050E0BA0139
:1031600088E090E00E943D2960E08DE090E00E94C0
:103170002B2940E050E0BA0188E190E00E943D290F
:1031800060E087E190E00E942B2940E050E0BA0126
:103190008CE190E00E943D2960E070E080E290E0E8
:1031A0000E94492940E050E0BA0188E190E00E9485
:1031B0003D29E1EDF1E080818160808386950E9468
:1031C000061321E04FEF60E080E00E94F2118BE0F7
:1031D0000E94061340E050E0BA018FE090E00E94A8
:1031E0003D2940E050E0BA0183E190E00C943D2994
:1031F00080915002811110925002089590914F02D7
:1032000080914E02892B20914D02982F922B909302
:10321000E001809150028823D9F0892B8093E0014E
:1032200080910E01882331F08091A60187FF02C0B2
:103230008EE101C086E0E2EEF1E090E0815028F0FE
:1032400021912223D9F39F5FF9CF91110E94F818A1
:10325000E091AE01F091AF013097A9F080910E019D
:10326000882359F08091A60187FF07C08091E00173
:103270008093E10185E08093E0010280F381E02DFD
:1032800080EE91E009940895CF93C091A701C2FB0D
:10329000992790F9981781F080FBC2F9C093A70194
:1032A0006091A60184E090E00E942B296C2F82E2BD
:1032B00090E0CF910C942B29CF910895BF92CF929B
:1032C000DF92EF92FF920F931F93CF93DF938C01C6
:1032D000C0908802D0908902E0908A02F0908B0220
:1032E0008091510290915202A0915302B0915402E8
:1032F000C82AD92AEA2AFB2ACFE1D0E0D701C601A1
:103300000C2E04C0B695A795979587950A94D2F789
:1033100080FD04C0219790F7B12C07C0BC2EB801E6
:103320008C2F0E9430150197A9F38B2DDF91CF913F
:103330001F910F91FF90EF90DF90CF90BF90089575
:10334000CF93DF93EC010E945E19BE010E943015FD
:10335000DF91CF910895292F220F920F990F890F96
:10336000682F669566956695982F977085E0689F9B
:10337000B001112440E050E080E0FB01E40FF51FB4
:10338000E85CFD4F208130E0092E02C0369527957C
:103390000A94E2F721703327042E01C0220F0A9409
:1033A000EAF7822B4F5F5F4F4530510531F70895A3
:1033B000292F220F920F990F890FE82FE695E69596
:1033C000E695877051E001C0550F8A95EAF785E0D0
:1033D000E89FF0011124E85CFD4F20E030E070E050
:1033E0004081CB01022E02C0969587950A94E2F7A0
:1033F0008170819584278523842781932F5F3F4F98
:103400002530310569F70895609388027093890229
:1034100080938A0290938B020C9479260F931F93CA
:1034200041E050E060E070E004C0440F551F661FAB
:10343000771F8A95D2F74095509560957095809149
:10344000880290918902A0918A02B0918B028A0130
:103450009B01082319232A233B23C901B8011F918B
:103460000F910C94041A20914C0280958223809332
:103470004C02982F977041F430E0482F082E000C32
:10348000550B2417350721F49091A70192FF07C02F
:103490008595859585950E940E1A10924C02089587
:1034A0000F931F9341E050E060E070E004C0440FD0
:1034B000551F661F771F8A95D2F7809188029091D9
:1034C0008902A0918A02B0918B028A019B01082B8C
:1034D000192B2A2B3B2BC901B8011F910F910C947A
:1034E000041A609351027093520280935302909396
:1034F00054020C9479268091370290910602891724
:1035000019F08F5F8770FBCF08950F931F93CF93B0
:10351000DF938091050282958F7009F05DC08091E4
:103520000202882309F458C08091370210910602E4
:103530006091000270910102C0910302D0910402D7
:1035400091E06F3F09F090E0292F06E0811709F420
:1035500043C0209721F07F3F21F030E003C031E0ED
:1035600001C0322F90E030FD34C0089FF001099F68
:10357000F00D1124DF01A95FBD4F11963C91119709
:10358000371327C03C91361324C012963C911297F2
:1035900031111FC013964D915C9114974C1B5D0B1C
:1035A000483C5105B0F4809105028F708061809392
:1035B0000502E45FFD4F80818F708061808380E031
:1035C00092E00E948E09DF91CF911F910F910C9490
:1035D0007B1A01968770BACFDF91CF911F910F911F
:1035E00008959F92AF92BF92CF92DF92EF92FF9297
:1035F0000F931F93CF93DF93CDB7DEB761970FB6CD
:10360000F894DEBF0FBECDBF8C0185E0F801DE016E
:103610001D9601900D928A95E1F7F80190818181C4
:10362000E2803091000260910102409103025091CA
:1036300004024115510531F06F3F31F421E03F3F65
:1036400019F403C021E001C020E0F22FF1709F2E99
:1036500020FD23C1F801C380D48020E0A22E22E007
:10366000B22EF0900202F601E41BF50BFF2009F4E4
:10367000CEC020910502E83CF10508F099C0422F28
:10368000407F09F051C0681311C039130FC0FE2CE0
:10369000E1100CC02F70206120930502C5010E942B
:1036A0008E0980910502F801858337C1CD2831F05C
:1036B0008F3F31F421E09F3F19F403C021E001C0A6
:1036C00020E020FD03C021E02E2502C020E030E0F4
:1036D000F22FF170FF2E20FF1DC020913702409184
:1036E000060256E0241709F4F6C030E0529FF001BC
:1036F000539FF00D1124E95FFD4F6181861306C0D1
:103700006081961303C06281E61204C02F5F3F4FB1
:103710002770E8CFFE2CEE2009F4FFC0809105024F
:1037200081608093050250C0681307C0391305C03B
:10373000E11003C0F80125838DC09D878E878D859C
:103740009E850E945026882369F1EE2059F1209130
:103750000502822F82958F7090E0029774F080911D
:1037600000029091010298878F831986DB86CA86B2
:103770002C87CE0107960E948E0986E0F801A0E012
:10378000B2E001900D928A95E1F70E94851A0DC072
:103790006817E1F09D878E878D859E850E94502653
:1037A00081111EC0C8010E948E09FF24F394B5C088
:1037B000422F407F69F780E092E00E948E0986E008
:1037C000F50111928A95E9F7F12CA7C03913E2CFE0
:1037D000E110E0CFF8012583C8010E948E0957C08F
:1037E000EE2001F320910502822F82958F7090E0E8
:1037F00002971CF280910002909101029A838983C2
:103800001B82DD82CC822E83CE010196B4CFE83CB0
:10381000F105E8F5FE2CEE2029F2681327C03913D4
:1038200025C02091050220FD18C0822F82958F703F
:10383000482F50E04115510581F0F80125834F30A4
:10384000510541F08F5F982F9295907F822F8F7056
:10385000892B8583C8010E948E0986E0F801A0E0CB
:10386000B2E001900D928A95E1F757C09D878E874F
:103870008D859E850E94502681117FCF8091050203
:10388000816080930502C8010E948E0946C086E0CF
:10389000F50111928A95E9F740C0EE2009F482CF34
:1038A0009D878E878D859E850E945026F82E8823C1
:1038B00009F478CF86E0F801A0E0B2E001900D9223
:1038C0008A95E1F780910002909101020E94A0196F
:1038D0000E94851A22C09D878E878D859E850E94B5
:1038E000A019292F22952F70223028F49F7039F0CB
:1038F000811105C00BC0243028F49F7049F4805E0C
:10390000883020F0C8010E948E099F2CF92C05C038
:10391000F8019581907F99F7F9CF8F2D61960FB6B9
:10392000F894DEBF0FBECDBFDF91CF911F910F91F5
:10393000FF90EF90DF90CF90BF90AF909F90089551
:103940000F931F938091880290918902A0918A021F
:10395000B0918B028C019D0106701127222733271D
:10396000BC01CD01063011052105310511F4686057
:1039700001C0677F1F910F910C94041A1F93CF937E
:10398000DF93CDB7DEB7AA970FB6F894DEBF0FBEB0
:10399000CDBFE0E8F2E08091F100819342E0E838A9
:1039A000F407C9F780918102833009F462C030F4D2
:1039B000813071F0823009F49CC0B3C08A3009F4C0
:1039C00088C08B3009F46DC0893009F0AAC020C0CE
:1039D00080918002813A09F0A4C08091E800877F3D
:1039E0008093E8008091840290918502892B21F4D4
:1039F00060E28CE592E003C060E080E090E070E07F
:103A00000E945D288091E8008B778093E80089C050
:103A100080918002813209F084C08091840290916B
:103A20008502009719F0029709F07BC08091E800A9
:103A3000877F8093E8008091E80082FD05C0809137
:103A40007E028111F8CF6DC02091F3008091F200C9
:103A500090E0922B029729F48091F1008B7F8130C6
:103A600021F48091F10080935B028091E8008B77D4
:103A700054C080918002813A09F053C08091840241
:103A800090918502892B09F04CC08091E800877FD6
:103A90008093E8008091E80080FFFCCF80910E01C8
:103AA00037C0809180028132E1F58091840290914B
:103AB0008502892BB1F58091E800877F8093E8002B
:103AC0000E9409288091820280930E010E9496260E
:103AD00028C080918002813221F58091E800877FA3
:103AE0008093E8000E9409288091830280935A0203
:103AF00018C080918002813AA1F48091E800877F0C
:103B00008093E8008091E80080FFFCCF80915A020A
:103B10008093F1008091E8008E778093E8000E9406
:103B200009288091E80083FFDDC180918002909197
:103B30008102492F50E04A30510508F0D3C1FA0103
:103B4000EB58FF4F0C94F629803821F0823809F0A9
:103B5000C9C108C080917C0290917D02992389F0AF
:103B600082600FC0809184028F70873008F0BAC1E4
:103B70008093E9008091EB0085FB882780F9109203
:103B8000E9009091E800977F9093E8008093F1001E
:103B90001092F10070C1282F2D7F09F0A3C1882356
:103BA00019F0823061F09EC180918202813009F06B
:103BB00099C1933009F080E080937D022EC08091FE
:103BC000820281112AC0809184028F702FEF280F0A
:103BD000263008F087C18093E9002091EB0020FF98
:103BE0001CC0933021F48091EB00806214C090914E
:103BF000EB0090619093EB0021E030E0A90102C05E
:103C0000440F551F8A95E2F74093EA001092EA00AC
:103C10008091EB0088608093EB001092E900809126
:103C2000E800877F8093E8000E9409285BC181112A
:103C300059C1109182021F778091E3008078812B17
:103C40008093E3008091E800877F8093E8000E94E2
:103C500009288091E80080FFFCCF8091E300806814
:103C60008093E300111102C082E001C083E08093E1
:103C70007E0238C18058823008F034C1209182021F
:103C8000309183022C3D53E0350779F583E08A8338
:103C90008AE289834FB7F894DE01139620E03EE074
:103CA00051E2E32FF0E050935700E49120FF03C06E
:103CB000E295EF703F5FEF708E2F90E0EA3010F0EA
:103CC000C79601C0C0968D939D932F5F243149F70D
:103CD0004FBF8091E800877F8093E8006AE270E040
:103CE000CE0101960E945D28B4C08091840290911B
:103CF0008502432F552743305105A9F068F4413020
:103D0000510509F4FEC04230510509F0EBC08BE5C6
:103D100090E0ECEFF3E04BC04132510529F1423223
:103D2000510589F1DFC0C901992781309105A1F0C2
:103D300058F0029709F0D6C0E9E6F4E0E4918E2F3E
:103D400090E0E9E6F4E030C0EFE9F4E0E4918E2F92
:103D500090E0EFE9F4E028C0E7E8F4E0E4918E2F8A
:103D600090E0E7E8F4E020C08330910508F0BAC0A5
:103D7000880F991FFC01E459FE4F0190F081E02D5E
:103D800089E090E014C08330910508F0ABC0FC01DD
:103D9000EE0FFF1FEA59FE4F0190F081E02DDC018C
:103DA000AD59BE4F8C9190E0009709F49BC02091D3
:103DB000E800277F2093E800209186023091870257
:103DC0002817390708F4C90140E0009789F12091CC
:103DD0007E02222309F43DC02530D9F12091E8006C
:103DE00023FD37C02091E80022FD2FC02091E8007C
:103DF00020FFEBCF4091F3002091F20030E0342B14
:103E0000009759F02830310540F444914093F10077
:103E1000319601972F5F3F4FF3CF41E028303105B6
:103E200009F040E02091E8002E772093E800CDCF04
:103E30004111CDCF0AC080917E02882351F0853098
:103E400041F08091E80083FD04C08091E80082FF8A
:103E5000F2CF8091E8008B778093E80043C08038F0
:103E600009F040C08091E800877F8093E80080914E
:103E70007F028093F1008091E8008E77D3CE81118C
:103E800031C080918202909183029927029754F564
:103E90008091E800877F8093E80010918202109360
:103EA0007F020E940928111106C08091E30087FD5E
:103EB00002C081E001C084E080937E0242E061ECB8
:103EC00081E00E94282842E261EC84E00E942828D8
:103ED00042E261EC82E00E94282842E260EC83E04A
:103EE0000E9428288091E80083FF10C08091E8009C
:103EF000877F8093E8008091EB0080628093EB00E5
:103F000005C082E190E0E7E5F4E051CFAA960FB654
:103F1000F894DEBF0FBECDBFDF91CF911F91089502
:103F20001F920F920FB60F9211242F933F934F932E
:103F30005F936F937F938F939F93AF93BF93CF9331
:103F4000DF93EF93FF93C091E900CF708091EC0075
:103F5000D82FD17080FDD0E81092E9008091F00058
:103F6000877F8093F00078940E94BE1C1092E90035
:103F70008091F00088608093F000CD2BCF70C093CB
:103F8000E900FF91EF91DF91CF91BF91AF919F91A8
:103F90008F917F916F915F914F913F912F910F90F2
:103FA0000FBE0F901F901895E8EDF0E080818E7F96
:103FB00080831092E2001092DA001092E100A0EEED
:103FC000B0E08C9181608C9380818F77808319BC65
:103FD000A7EDB0E08C918E7F8C9380818F7E808363
:103FE000109259020895CF92DF92EF92FF920F93B1
:103FF0001F93CF93DF93C8EDD0E088818F7E8883B5
:10400000E7EDF0E080818160808384E082BF81E021
:104010008093590288818E7F888302EE10E0F80138
:1040200010821092DA0081EEC82ED12CF601108297
:1040300088818F77888388818068888388818F7D55
:10404000888319BC10927E0210927F0210927D022A
:1040500010927C0290EEE92EF12CF70180818B7F8B
:10406000808388818160888342E060E080E00E94F4
:104070002828F60180818E7F8083F801808181600D
:104080008083808188608083F70180818E7F808338
:10409000888180618883DF91CF911F910F91FF907C
:1040A000EF90DF90CF9008951F920F920FB60F926E
:1040B00011242F933F934F935F936F937F938F932D
:1040C0009F93AF93BF93EF93FF938091E10082FFA3
:1040D00009C08091E20082FF05C08091E1008B7FE2
:1040E0008093E1008091DA0080FF2AC08091D8009F
:1040F00080FF26C08091DA008E7F8093DA00809165
:10410000D90080FF18C080E189BD82E189BD09B472
:1041100000FEFDCF81E080937E02809159028111E3
:104120000FC00E94D41F0E94F31F8091E2008460A0
:104130008093E20005C019BC10927E0210925902D1
:104140008091E10080FF17C08091E20080FF13C0E2
:104150008091E2008E7F8093E2008091E200806196
:104160008093E2008091D80080628093D80019BCCF
:1041700085E080937E028091E10084FF2EC08091D3
:10418000E20084FF2AC080E189BD82E189BD09B4D3
:1041900000FEFDCF8091D8008F7D8093D800809164
:1041A000E1008F7E8093E1008091E2008F7E80931A
:1041B000E2008091E20081608093E20080917F02C2
:1041C000882311F084E007C08091E30087FD02C0DE
:1041D00081E001C083E080937E028091E10083FF53
:1041E00027C08091E20083FF23C08091E100877F98
:1041F0008093E10082E080937E0210927F028091A2
:10420000E1008E7F8093E1008091E2008E7F8093B9
:10421000E2008091E20080618093E20042E060E091
:1042200080E00E9428288091F00088608093F00050
:10423000FF91EF91BF91AF919F918F917F916F917E
:104240005F914F913F912F910F900FBE0F901F9054
:1042500018952091E4003091E50095E64091EC003E
:10426000842F817040FF23C08091E80080FD1DC035
:1042700080917E02882399F0853099F08091EB003F
:1042800085FD11C04091E4005091E50024173507E9
:1042900029F3915011F09A01E1CF84E0089582E072
:1042A000089583E0089581E0089580E008954091A5
:1042B000E80042FFDDCF0895EF92FF920F931F9326
:1042C000CF93DF937C018B010E942921811119C0BA
:1042D000E70101151105A1F08091E80085FD0AC0F4
:1042E0008091E8008E778093E8000E94292188233E
:1042F00081F307C089918093F10001501109E9CF42
:1043000080E0DF91CF911F910F91FF90EF90089582
:1043100008950F931F93CF93DF9300D01F92CDB7D3
:10432000DEB78C0180918E0281110AC09E012F5F41
:104330003F4F4AEF6FEF0E9459118A8180938E029E
:10434000F8018481813051F028F0823061F440918D
:104350008E020AC080918E0240E007C060918E02FA
:1043600040E080E003C040E080E060E00E94EA10AE
:10437000F801848190E0019663E070E00E94E229F8
:1043800084830F900F900F90DF91CF911F910F9129
:104390000895CF93DF93EC01E1EDF1E04381628179
:1043A0008C810E941C138C818F5F8C83DF91CF9155
:1043B0000895CF93DF93EC01EC81F0E0ED55FB4FD6
:1043C0004491E1EDF1E0628181810E941C138C81B6
:1043D0008F5F8C83DF91CF9108951F93CF93DF93ED
:1043E000CDB7DEB767970FB6F894DEBF0FBECDBF6F
:1043F000342F4B8B252F5C8B6D8B7E8B8F8B4E8957
:104400005F89611110924E0286E0FE013D96DF0148
:10441000982F1D929A95E9F73D872E876F87598BC4
:10442000488BDE01179601900D928A95E1F7CE0137
:1044300007960E94F11A81113EC086E0FE01379670
:10444000DE01119601900D928A95E1F7FF81E885D2
:104450006A857B856115710531F0EF3F31F481E0AC
:10446000FF3F19F403C081E001C080E080FD23C05C
:104470002091060230E0C90101968770992740918A
:10448000370250E08417950779F1F983EA837D8339
:104490006C8396E0929FD001939FB00D1124A95F89
:1044A000BD4FFE01319601900D929A95E1F78093F0
:1044B00006020E947B1A16E0809137029091060254
:1044C0008917F9F0189FC0011124895F9D4F0E9440
:1044D000F11A8823B1F08091370290E0019687703D
:1044E000992780933702E8CF0E9496261092060201
:1044F00010923702E0E0F2E086E0DF011D928A953B
:10450000E9F767960FB6F894DEBF0FBECDBFDF9117
:10451000CF911F9108952091D3023091D402281792
:10452000390771F09093D4028093D302E091AE01E9
:10453000F091AF01309721F00084F185E02D0994CE
:1045400008952091D1023091D2022817390771F0D5
:104550009093D2028093D102E091AE01F091AF012D
:10456000309721F00680F781E02D09940895E091BD
:10457000AE01F091AF01309721F00190F081E02D74
:10458000099480E008950F931F93CF93DF93C42F76
:10459000D22FFC0182818823C9F04093DB010E9465
:1045A000D9179093D0028093CF0280E28C0F88308D
:1045B00008F057C0C77081E001C0880FCA95EAF7BC
:1045C000DF91CF911F910F910C94B6268091DB0162
:1045D000481330C08091CF029091D0020E94BE1744
:1045E000883C910538F510E21D0FCD17B9F080E237
:1045F0008C0F883040F4C77081E001C0880FCA95E5
:10460000EAF70E94AB26183028F581E09D2F9770BD
:1046100001C0880F9A95EAF70E94B626802F0E9463
:10462000EB271830F0F4D77081E001C0880FDA95DD
:10463000EAF70AC080E28C0F883098F4C77081E0F6
:1046400001C0880FCA95EAF7DF91CF911F910F91B2
:104650000C94AB26802FDF91CF911F910F910C947A
:10466000EB27DF91CF911F910F910895CF93DF93A7
:10467000C7E1D1E060E0CE010E942B292196C1154F
:1046800084E0D807B9F7DF91CF910895CF92DF92F8
:10469000EF92FF920F931F93CF93DF93C0E0D0E090
:1046A0008E01045C1F4F6E018CE0C80ED11CFE0110
:1046B000ED55FA4FE590F4906F2DCE0187960E944C
:1046C0002B296E2DCE0188960E942B292296CC157F
:1046D000DD0569F70C171D0731F7E801003F1105EB
:1046E000F9F6DF91CF911F910F91FF90EF90DF903E
:1046F000CF9008950F931F93CF93DF93C42FD0E0F3
:10470000CC0FDD1F2CE0629FC00DD11D11243CE3B6
:10471000839FC00DD11D1124CE0187960E941729B9
:10472000082F10E0102F0027CE0188960E9417292D
:104730009801282BC901DF91CF911F910F91089506
:10474000462F843038F4753028F4663018F4672F1B
:104750000C947A2380E090E008959091D10190FF2D
:1047600004C09695981740F003C0811105C090E0F1
:10477000961710F40C9412130C940613882311F05E
:10478000FA0101C0FB0109946091D101669570E0C6
:104790004BE050E08FE091E00E94122A892B19F43F
:1047A00081E08093D0010E94D9179093B401809347
:1047B000B30108958091D10180FF0AC0869A81B328
:1047C0008F7B91B390642FB7F894EFE8F2E00BC0C1
:1047D000EFE8F2E0118210821282339632E0E73A7B
:1047E000F307C1F7EBCF32E0E73AF30789F03191F5
:1047F00048E091BB000000C037FF81BB330F0000D1
:1048000000C000C000C081BB00C04A9591F7EBCF4B
:104810002FBF8FE594E00197F1F700C000000895E5
:104820009F92AF92BF92CF92DF92EF92FF920F933F
:104830001F93CF93DF93FC01A280948081E0848357
:10484000E3EAF4E0B490E2E2F5E0E491C7EAD2E012
:10485000FFE8EF2EF2E0FF2ECC24CA94D12CEB1906
:104860000E2F10E022E02A1530F08091D2018883CB
:104870008091D3018983911003C01B821A8255C095
:104880008B818823F9F081508B832FEF829FC001A9
:1048900011246C8170E00E94CE29FB01FF27ED55A9
:1048A000FB4F8491E82FEB192FEFE29FC0011124F9
:1048B000B8010E94CE298091D401689FB0011124D3
:1048C0007A8333C00E9407292091D401269521586C
:1048D00030E0A901440F551F322F2227240F351F26
:1048E000232F33278217930704F582E08A1588F473
:1048F0000E940729B6010E94E22988830E940729A5
:104900002091D3012695622F70E00E94E229280FA2
:1049100029831A828091D401843120F0893C18F0D7
:1049200088EC01C084E18C838B8397014A81698183
:1049300088810E945911259623E0E20EF11C82E045
:10494000CF3CD80709F08ECFDF91CF911F910F9107
:10495000FF90EF90DF90CF90BF90AF909F900C941E
:10496000DA23EF92FF920F931F93CF93DF938C0183
:10497000CFE8D2E0E12CF12CF8018481F4E0EF16CD
:10498000F1041CF4882339F002C0811104C09E0197
:104990004091D40102C09E0140E06091D30180911A
:1049A000D2010E9459118FEFE81AF80A239698E075
:1049B000E916F10409F70E94DA23F801848190E0F6
:1049C0000196817099278483DF91CF911F910F9178
:1049D000FF90EF9008958F929F92AF92BF92CF92E7
:1049E000DF92EF92FF920F931F93CF93DF93EC012F
:1049F0004C81042F10E09801D8010E94B3299B013B
:104A0000AC010E947E296B017C01E0E2F0E0E01B3A
:104A1000F10BA5E5B0E09B01AC010E947E294B01A2
:104A20005C019F01DF010E94032A9B01AC010E94EF
:104A300089299B01AC012C0D3D1D4E1D5F1DC5013B
:104A4000B4010E949129822FF22E99E2921728F048
:104A500093E0299F900111240DC025E530E0281B2B
:104A60003109C901880F991F280F391F37FF02C06C
:104A70002F5F3F4F35952795122F10959FE8C92E30
:104A800092E0D92E00E085E5E82EEF1801FD02C086
:104A90008E2D01C08F2D9601412F6091D3010E9470
:104AA00059110F5F83E0C80ED11C083079F70E94BE
:104AB000DA238C81811102C091E003C0803219F4A5
:104AC0009FEF90931C0190911C01890F8C83DF91C3
:104AD000CF911F910F91FF90EF90DF90CF90BF90FB
:104AE000AF909F908F9008950F931F93CF93DF9374
:104AF000CFE8D2E0FE01118210821282339682E06A
:104B0000E73AF807C1F700E010E080918D02082E27
:104B1000000C990B0817190794F080911B01082EBF
:104B2000000C990B8017910754F09E014091D4011D
:104B30006091D3018091D2010E94591103C0198262
:104B400018821A820F5F1F4F239608301105E9F66D
:104B50000E94DA2380911A0190918D02980F909310
:104B60008D0220911B01280F20931B01121614F4B3
:104B700097301CF0819580931A01DF91CF911F919E
:104B80000F910895CF92DF92EF92FF920F931F93B0
:104B9000CF93DF93FC01828180FF03C0DD24DA9490
:104BA00002C0DD24D394CFE8D2E000E010E0198207
:104BB00018821A8294E0E92EF12CC12C80918C028B
:104BC0008C0D893014F0877002C087FD885F082E35
:104BD000000C990B0817190791F48091D4018E9D50
:104BE000A0018F9D500D11245595479555954795DA
:104BF0009E016091D3018091D2010E945911CD0C88
:104C0000F1E0EF1AF108D1F60F5F1F4F239608303D
:104C1000110569F60E94DA2380918C0291E0D91285
:104C200006C0811102C087E006C0815004C090E038
:104C300001968770992780938C02DF91CF911F9105
:104C40000F91FF90EF90DF90CF900895EF92FF9239
:104C50001F93CF93DF93EC018FE8E82E82E0F82ECC
:104C600010E08C8197014091D4016091D301810FB4
:104C70000E945911115E83E0E80EF11C183F89F77C
:104C80000E94DA239A818C8190FF02C08F5F01C05D
:104C900081508C83DF91CF911F91FF90EF90089509
:104CA0000E94A019292F2F70E92FE295EF704E2F47
:104CB00050E0FA013297EE30F105B8F4E158FF4FB9
:104CC0000C94F629803F99F018F4883E70F40FC0D8
:104CD000843F59F40CC0883E50F0813F31F407C046
:104CE000822F869586958695089580E0089581E0C7
:104CF000089580E090E00E94A12280E090E00E9470
:104D00008B2210924E0210924D020E94FE18E2EC8D
:104D1000F1E086E0DF011D928A95E9F71092BF016C
:104D20001092BC011092D5020C94361310924F02CF
:104D300080910E01882331F08091A60187FF02C087
:104D40008EE101C086E0E2EEF1E0DF011D928A957E
:104D5000E9F70C947926882341F0809590914F02D1
:104D6000892380934F020C94FE180895882339F00C
:104D700090914F02892B80934F020C94FE18089556
:104D8000882309F463C0823869F40E94B72281FF46
:104D90005DC069E380EE91E00E9436180E94FE1823
:104DA00069E30EC0833891F40E94B72280FF4EC0A1
:104DB00063E580EE91E00E9436180E94FE1863E5DC
:104DC00080EE91E00E940E180C94FE18843869F46D
:104DD0000E94B72282FF3AC067E480EE91E00E9411
:104DE00036180E94FE1867E4EBCF9CEF980F913ABB
:104DF00010F4682FE5CF90E2980F983088F4877010
:104E000021E030E0A90102C0440F551F8A95E2F766
:104E1000CA01809590914F02892380934F02D4CF8D
:104E20009BE5980F933020F480E090E00C94A12251
:104E300098E5980F973120F480E090E00C948B2255
:104E4000803F20F00E9460130C9436130895CF9396
:104E5000882309F4BEC0C82F8238B1F40E94B7225B
:104E600081FDB7C069E380EE91E00E9436180E9490
:104E7000FE182FEF81EE94E0215080409040E1F742
:104E800000C0000069E317C08338E1F40E94B72234
:104E900080FD9FC063E580EE91E00E9436180E947D
:104EA000FE182FEF81EE94E0215080409040E1F712
:104EB00000C0000063E580EE91E00E940E18CF91E3
:104EC0000C94FE188438B1F40E94B72282FD81C090
:104ED00067E480EE91E00E9436180E94FE182FEFE2
:104EE00081EE94E0215080409040E1F700C0000046
:104EF00067E4E1CF8CEF8C0F813AC0F580910E0111
:104F00008823E1F08091A60187FF18C0EC2FE69579
:104F1000E695E695F0E0E052FE4F8281282F30E0E2
:104F20004C2F477081E090E002C0880F991F4A958E
:104F3000E2F782239323892B61F412C0E2EEF1E0C1
:104F400088EE91E02191C21721F08E179F07D1F7CB
:104F500007C06C2F80EE91E00E940E180E94FE1890
:104F60006C2F80EE91E00E943618A9CF80E28C0F62
:104F7000883068F4C77081E090E001C0880FCA955E
:104F8000EAF790914F02892B80934F0298CFEBE57F
:104F9000EC0FE33040F4F0E0EE58FE4F808190E0FB
:104FA000CF910C94A122E8E5EC0FE73150F4F0E04A
:104FB000EE0FFF1FEB58FE4F80819181CF910C9433
:104FC0008B22C03F30F08C2F0E941914CF910C948B
:104FD0003613CF9108951F93CF93DF93182F893302
:104FE00019F0C0E0D0E002C0C0E5D0E0812F0E94FF
:104FF0002727209741F08FE99FE00197F1F700C044
:1050000000002197F6CF812FDF91CF911F910C9453
:10501000C0268091800287FF11C08091E80082FD48
:1050200005C080917E028111F8CF11C08091E80007
:105030008B770BC080917E02882349F08091E80035
:1050400080FFF8CF8091E8008E778093E800089584
:10505000982F973068F59093E900981739F0709180
:10506000EC002091ED005091F00003C0242F762F2A
:1050700050E021FD02C09F5FECCF3091EB003E7FFE
:105080003093EB003091ED003D7F3093ED00309197
:10509000EB0031603093EB007093EC002093ED0057
:1050A0005093F0002091EE0027FDE5CF80E00895B9
:1050B0008F708093E90081E00895209186023091FD
:1050C00087022617370748F06115710539F42091DA
:1050D000E8002E772093E80001C0B901FC0120E030
:1050E0006115710579F180917E028823F1F1853097
:1050F000F1F18091E80083FD3CC08091E80082FDE1
:105100002EC08091E80080FFEBCF2091F3008091CA
:10511000F20090E0922B6115710551F088309105F5
:1051200038F421912093F100615071090196F3CF79
:1051300021E0089709F020E08091E8008E778093C5
:10514000E800CECF2111CFCF0AC080917E02882304
:1051500061F0853061F08091E80083FD0AC08091A4
:10516000E80082FFF2CF80E0089582E0089583E0B6
:10517000089581E008958F929F92AF92BF92CF924F
:10518000DF92EF92FF92CF93DF93EC0168817981F8
:105190008A819B81611571058105910521F464E285
:1051A00079ED8BE597E02DE133EF41E050E00E948F
:1051B0005F2949015A019B01AC01A7EAB1E40E94B1
:1051C0007E296B017C01ACEEB4EFA50194010E9435
:1051D0008C29DC01CB018C0D9D1DAE1DBF1DB7FFC1
:1051E00003C00197A109B04888839983AA83BB8330
:1051F0009F77DF91CF91FF90EF90DF90CF90BF909E
:10520000AF909F908F9008950E94BB28089580E0F2
:1052100091E00E94BB280895A0E0B0E080930001D7
:1052200090930101A0930201B09303010895F999AD
:10523000FECF92BD81BDF89A992780B50895A6E169
:10524000B0E044E050E00C945129A8E1B0E042E025
:1052500050E00C945129262FF999FECF92BD81BDC3
:10526000F89A019700B4021639F01FBA20BD0FB6A4
:10527000F894FA9AF99A0FBE08950396272F0E9480
:105280002C290E942B29252F0E942C29242F0C9495
:105290002C290196272F0E942C290C942B29DC0104
:1052A000CB01FC01F999FECF06C0F2BDE1BDF89A31
:1052B000319600B40D9241505040B8F70895052E34
:1052C00097FB1EF400940E94762957FD07D00E9498
:1052D000912907FC03D04EF40C9476295095409503
:1052E000309521953F4F4F4F5F4F08959095809592
:1052F000709561957F4F8F4F9F4F08950E94B329FE
:10530000A59F900DB49F900DA49F800D911D112419
:105310000895B7FF0C947E290E947E29821B930B6F
:105320000895A1E21A2EAA1BBB1BFD010DC0AA1FE6
:10533000BB1FEE1FFF1FA217B307E407F50720F0FE
:10534000A21BB30BE40BF50B661F771F881F991F79
:105350001A9469F760957095809590959B01AC01C2
:10536000BD01CF010895A29FB001B39FC001A39FCB
:10537000700D811D1124911DB29F700D811D11248E
:10538000911D0895991B79E004C0991F961708F0A4
:10539000961B881F7A95C9F780950895AA1BBB1B99
:1053A00051E107C0AA1FBB1FA617B70710F0A61B25
:1053B000B70B881F991F5A95A9F780959095BC0146
:1053C000CD01089597FB072E16F4009407D077FDC2
:1053D00009D00E94CE2907FC05D03EF49095819516
:1053E0009F4F0895709561957F4F0895EE0FFF1FB1
:1053F0000590F491E02D099469279627692778276D
:105400008727782708950E94B329332312F48A1B33
:105410009B0B0C940D2A0E94B329B7FF0895821BA1
:10542000930B0895FC014150504030F00190061656
:10543000D1F73197CF010895882799270895F894D7
:02544000FFCF9C
:1054420001000000D5163317141710170C170101AD
:10545200191A1B1C1D1E1F2021220102019091926C
:10546200939566679734353600FF0100010000FF0F
:10547200FF0000010001FF00000102020202060615
:10548200060909090909090F0F0F0F0F0F15151545
:105492001819191919191919191919232425252542
:1054A2002525254022B6BC039A03E4020E042704F4
:1054B2004704818283E200E900EA00B500B600B742
:1054C20000CD008301CC008A0192019401210223C4
:1054D2000224022502260227022A02B300B4006F28
:0454E2000070000056
:00000001FF
